:020000040800F2
:100000000050002055000008990100089B010008DD
:1000100000000000000000000000000000000000E0
:1000200000000000000000000000000000000000D0
:100030000000000000000000000000009D0100081A
:1000400000000000000000000000000000000000B0
:10005000000000005948016841F4803101600168E6
:1000600011F40031FBD0016841F4003101605448C3
:100070004FF0320101605348016841F4EA1141F444
:10008000806101604D48016841F080710160016844
:1000900011F00071FBD04B48016841F4EA1141F4C2
:1000A000806141F002010160474844F2140101609F
:1000B0004648016841F0300141F0800121F04001E3
:1000C0000160434840F271210160424842F20C0154
:1000D0000160414842F22831016040484FF003017D
:1000E00001603F4880F309884FF0030080F31488D3
:1000F0004FF000013B4801603B4801603B48016014
:100100003B4801603B4801603648016811F0020F2E
:10011000FAD039484FF0000101604FF0480000F07C
:1001200031F84FF0650000F02DF84FF06C0000F052
:1001300029F84FF06C0000F025F84FF06F0000F048
:1001400021F84FF0200000F01DF84FF0570000F0AC
:1001500019F84FF0690000F015F84FF06E0000F04C
:1001600011F84FF0640000F00DF84FF06F0000F050
:1001700009F84FF0770000F005F84FF00A0000F0A2
:1001800001F8C1E70FB41D4A10601D4A126812F051
:10019000400FFAD00FBC7047704770471548016890
:1001A00001F101010160B1F5FA7F06D34FF00001C2
:1001B000016011484FF001010160704700100240DA
:1001C00000200240041002401810024004080140C0
:1001D000083801400C38014014E000E010E000E075
:1001E000004E00200002002004020020080200202F
:1001F0000C020020100200200440002204380140BC
:040200000038014081
:04000005080000559A
:00000001FF
